{
    "contractName": "DerivedPredictionMarket",
    "abi": [
        {
            "inputs": [
                {
                    "internalType": "contract IERC20",
                    "name": "_collateral",
                    "type": "address"
                }
            ],
            "stateMutability": "nonpayable",
            "type": "constructor"
        },
        {
            "anonymous": false,
            "inputs": [
                {
                    "indexed": true,
                    "internalType": "address",
                    "name": "account",
                    "type": "address"
                },
                {
                    "indexed": true,
                    "internalType": "address",
                    "name": "operator",
                    "type": "address"
                },
                {
                    "indexed": false,
                    "internalType": "bool",
                    "name": "approved",
                    "type": "bool"
                }
            ],
            "name": "ApprovalForAll",
            "type": "event"
        },
        {
            "anonymous": false,
            "inputs": [
                {
                    "indexed": true,
                    "internalType": "address",
                    "name": "previousOwner",
                    "type": "address"
                },
                {
                    "indexed": true,
                    "internalType": "address",
                    "name": "newOwner",
                    "type": "address"
                }
            ],
            "name": "OwnershipTransferred",
            "type": "event"
        },
        {
            "anonymous": false,
            "inputs": [
                {
                    "indexed": true,
                    "internalType": "address",
                    "name": "maker",
                    "type": "address"
                },
                {
                    "indexed": true,
                    "internalType": "address",
                    "name": "resolver",
                    "type": "address"
                },
                {
                    "indexed": false,
                    "internalType": "string",
                    "name": "title",
                    "type": "string"
                },
                {
                    "indexed": false,
                    "internalType": "string",
                    "name": "meta",
                    "type": "string"
                },
                {
                    "indexed": false,
                    "internalType": "string",
                    "name": "category",
                    "type": "string"
                },
                {
                    "indexed": false,
                    "internalType": "uint256",
                    "name": "questionId",
                    "type": "uint256"
                },
                {
                    "indexed": false,
                    "internalType": "uint256",
                    "name": "resolveTime",
                    "type": "uint256"
                },
                {
                    "indexed": false,
                    "internalType": "uint256",
                    "name": "funding",
                    "type": "uint256"
                },
                {
                    "indexed": false,
                    "internalType": "uint256",
                    "name": "fee",
                    "type": "uint256"
                },
                {
                    "indexed": false,
                    "internalType": "uint256",
                    "name": "long",
                    "type": "uint256"
                },
                {
                    "indexed": false,
                    "internalType": "uint256",
                    "name": "short",
                    "type": "uint256"
                }
            ],
            "name": "QuestionCreated",
            "type": "event"
        },
        {
            "anonymous": false,
            "inputs": [
                {
                    "indexed": false,
                    "internalType": "uint256",
                    "name": "questionId",
                    "type": "uint256"
                },
                {
                    "indexed": false,
                    "internalType": "uint256",
                    "name": "slotIndex",
                    "type": "uint256"
                }
            ],
            "name": "QuestionResolved",
            "type": "event"
        },
        {
            "anonymous": false,
            "inputs": [
                {
                    "indexed": false,
                    "internalType": "string",
                    "name": "trade",
                    "type": "string"
                },
                {
                    "indexed": false,
                    "internalType": "uint256",
                    "name": "questionId",
                    "type": "uint256"
                },
                {
                    "indexed": false,
                    "internalType": "uint256",
                    "name": "slotIndex",
                    "type": "uint256"
                },
                {
                    "indexed": false,
                    "internalType": "uint256",
                    "name": "long",
                    "type": "uint256"
                },
                {
                    "indexed": false,
                    "internalType": "uint256",
                    "name": "short",
                    "type": "uint256"
                },
                {
                    "indexed": false,
                    "internalType": "uint256",
                    "name": "lpVolume",
                    "type": "uint256"
                },
                {
                    "indexed": false,
                    "internalType": "uint256",
                    "name": "tradeVolume",
                    "type": "uint256"
                },
                {
                    "indexed": false,
                    "internalType": "uint256",
                    "name": "amount",
                    "type": "uint256"
                }
            ],
            "name": "Trade",
            "type": "event"
        },
        {
            "anonymous": false,
            "inputs": [
                {
                    "indexed": false,
                    "internalType": "uint256",
                    "name": "questionId",
                    "type": "uint256"
                }
            ],
            "name": "TradePaused",
            "type": "event"
        },
        {
            "anonymous": false,
            "inputs": [
                {
                    "indexed": false,
                    "internalType": "uint256",
                    "name": "questionId",
                    "type": "uint256"
                }
            ],
            "name": "TradeUnpaused",
            "type": "event"
        },
        {
            "anonymous": false,
            "inputs": [
                {
                    "indexed": true,
                    "internalType": "address",
                    "name": "operator",
                    "type": "address"
                },
                {
                    "indexed": true,
                    "internalType": "address",
                    "name": "from",
                    "type": "address"
                },
                {
                    "indexed": true,
                    "internalType": "address",
                    "name": "to",
                    "type": "address"
                },
                {
                    "indexed": false,
                    "internalType": "uint256[]",
                    "name": "ids",
                    "type": "uint256[]"
                },
                {
                    "indexed": false,
                    "internalType": "uint256[]",
                    "name": "values",
                    "type": "uint256[]"
                }
            ],
            "name": "TransferBatch",
            "type": "event"
        },
        {
            "anonymous": false,
            "inputs": [
                {
                    "indexed": true,
                    "internalType": "address",
                    "name": "operator",
                    "type": "address"
                },
                {
                    "indexed": true,
                    "internalType": "address",
                    "name": "from",
                    "type": "address"
                },
                {
                    "indexed": true,
                    "internalType": "address",
                    "name": "to",
                    "type": "address"
                },
                {
                    "indexed": false,
                    "internalType": "uint256",
                    "name": "id",
                    "type": "uint256"
                },
                {
                    "indexed": false,
                    "internalType": "uint256",
                    "name": "value",
                    "type": "uint256"
                }
            ],
            "name": "TransferSingle",
            "type": "event"
        },
        {
            "anonymous": false,
            "inputs": [
                {
                    "indexed": false,
                    "internalType": "string",
                    "name": "value",
                    "type": "string"
                },
                {
                    "indexed": true,
                    "internalType": "uint256",
                    "name": "id",
                    "type": "uint256"
                }
            ],
            "name": "URI",
            "type": "event"
        },
        {
            "inputs": [
                {
                    "internalType": "address",
                    "name": "account",
                    "type": "address"
                },
                {
                    "internalType": "uint256",
                    "name": "id",
                    "type": "uint256"
                }
            ],
            "name": "balanceOf",
            "outputs": [
                {
                    "internalType": "uint256",
                    "name": "",
                    "type": "uint256"
                }
            ],
            "stateMutability": "view",
            "type": "function"
        },
        {
            "inputs": [
                {
                    "internalType": "address[]",
                    "name": "accounts",
                    "type": "address[]"
                },
                {
                    "internalType": "uint256[]",
                    "name": "ids",
                    "type": "uint256[]"
                }
            ],
            "name": "balanceOfBatch",
            "outputs": [
                {
                    "internalType": "uint256[]",
                    "name": "",
                    "type": "uint256[]"
                }
            ],
            "stateMutability": "view",
            "type": "function"
        },
        {
            "inputs": [
                {
                    "internalType": "address",
                    "name": "account",
                    "type": "address"
                },
                {
                    "internalType": "uint256",
                    "name": "id",
                    "type": "uint256"
                },
                {
                    "internalType": "uint256",
                    "name": "value",
                    "type": "uint256"
                }
            ],
            "name": "burn",
            "outputs": [],
            "stateMutability": "nonpayable",
            "type": "function"
        },
        {
            "inputs": [
                {
                    "internalType": "address",
                    "name": "account",
                    "type": "address"
                },
                {
                    "internalType": "uint256[]",
                    "name": "ids",
                    "type": "uint256[]"
                },
                {
                    "internalType": "uint256[]",
                    "name": "values",
                    "type": "uint256[]"
                }
            ],
            "name": "burnBatch",
            "outputs": [],
            "stateMutability": "nonpayable",
            "type": "function"
        },
        {
            "inputs": [
                {
                    "internalType": "uint256",
                    "name": "_questionId",
                    "type": "uint256"
                },
                {
                    "internalType": "uint256",
                    "name": "_amount",
                    "type": "uint256"
                },
                {
                    "internalType": "uint256",
                    "name": "_slotIndex",
                    "type": "uint256"
                }
            ],
            "name": "buy",
            "outputs": [],
            "stateMutability": "nonpayable",
            "type": "function"
        },
        {
            "inputs": [],
            "name": "collateral",
            "outputs": [
                {
                    "internalType": "contract IERC20",
                    "name": "",
                    "type": "address"
                }
            ],
            "stateMutability": "view",
            "type": "function"
        },
        {
            "inputs": [
                {
                    "internalType": "address",
                    "name": "_resolver",
                    "type": "address"
                },
                {
                    "internalType": "string",
                    "name": "_title",
                    "type": "string"
                },
                {
                    "internalType": "string",
                    "name": "_meta",
                    "type": "string"
                },
                {
                    "internalType": "string",
                    "name": "_category",
                    "type": "string"
                },
                {
                    "internalType": "uint256",
                    "name": "_resolveTime",
                    "type": "uint256"
                },
                {
                    "internalType": "uint256",
                    "name": "_funding",
                    "type": "uint256"
                },
                {
                    "internalType": "uint256",
                    "name": "_fee",
                    "type": "uint256"
                }
            ],
            "name": "createQuestion",
            "outputs": [
                {
                    "internalType": "uint256",
                    "name": "questionId",
                    "type": "uint256"
                }
            ],
            "stateMutability": "nonpayable",
            "type": "function"
        },
        {
            "inputs": [
                {
                    "internalType": "uint256",
                    "name": "_questionId",
                    "type": "uint256"
                },
                {
                    "internalType": "uint256",
                    "name": "_slotIndex",
                    "type": "uint256"
                }
            ],
            "name": "generateAnswerId",
            "outputs": [
                {
                    "internalType": "uint256",
                    "name": "",
                    "type": "uint256"
                }
            ],
            "stateMutability": "pure",
            "type": "function"
        },
        {
            "inputs": [
                {
                    "internalType": "address",
                    "name": "_maker",
                    "type": "address"
                },
                {
                    "internalType": "string",
                    "name": "_meta",
                    "type": "string"
                }
            ],
            "name": "generateQuestionId",
            "outputs": [
                {
                    "internalType": "uint256",
                    "name": "",
                    "type": "uint256"
                }
            ],
            "stateMutability": "pure",
            "type": "function"
        },
        {
            "inputs": [
                {
                    "internalType": "uint256",
                    "name": "_questionId",
                    "type": "uint256"
                }
            ],
            "name": "getAnswerPrices",
            "outputs": [
                {
                    "internalType": "uint256[2]",
                    "name": "",
                    "type": "uint256[2]"
                }
            ],
            "stateMutability": "view",
            "type": "function"
        },
        {
            "inputs": [
                {
                    "internalType": "uint256",
                    "name": "_questionId",
                    "type": "uint256"
                }
            ],
            "name": "getQuestionStatus",
            "outputs": [
                {
                    "internalType": "bool",
                    "name": "",
                    "type": "bool"
                }
            ],
            "stateMutability": "view",
            "type": "function"
        },
        {
            "inputs": [
                {
                    "internalType": "uint256",
                    "name": "_questionId",
                    "type": "uint256"
                }
            ],
            "name": "getVolume",
            "outputs": [
                {
                    "internalType": "uint256",
                    "name": "",
                    "type": "uint256"
                }
            ],
            "stateMutability": "view",
            "type": "function"
        },
        {
            "inputs": [
                {
                    "internalType": "uint256",
                    "name": "_questionId",
                    "type": "uint256"
                }
            ],
            "name": "getrewards",
            "outputs": [
                {
                    "internalType": "uint256",
                    "name": "",
                    "type": "uint256"
                }
            ],
            "stateMutability": "view",
            "type": "function"
        },
        {
            "inputs": [
                {
                    "internalType": "address",
                    "name": "account",
                    "type": "address"
                },
                {
                    "internalType": "address",
                    "name": "operator",
                    "type": "address"
                }
            ],
            "name": "isApprovedForAll",
            "outputs": [
                {
                    "internalType": "bool",
                    "name": "",
                    "type": "bool"
                }
            ],
            "stateMutability": "view",
            "type": "function"
        },
        {
            "inputs": [
                {
                    "internalType": "uint256",
                    "name": "",
                    "type": "uint256"
                }
            ],
            "name": "marketStatus",
            "outputs": [
                {
                    "internalType": "bool",
                    "name": "",
                    "type": "bool"
                }
            ],
            "stateMutability": "view",
            "type": "function"
        },
        {
            "inputs": [
                {
                    "internalType": "uint256",
                    "name": "",
                    "type": "uint256"
                }
            ],
            "name": "markets",
            "outputs": [
                {
                    "internalType": "uint256",
                    "name": "long",
                    "type": "uint256"
                },
                {
                    "internalType": "uint256",
                    "name": "short",
                    "type": "uint256"
                },
                {
                    "internalType": "uint256",
                    "name": "lpVolume",
                    "type": "uint256"
                },
                {
                    "internalType": "uint256",
                    "name": "tradeVolume",
                    "type": "uint256"
                }
            ],
            "stateMutability": "view",
            "type": "function"
        },
        {
            "inputs": [
                {
                    "internalType": "address",
                    "name": "",
                    "type": "address"
                },
                {
                    "internalType": "address",
                    "name": "",
                    "type": "address"
                },
                {
                    "internalType": "uint256[]",
                    "name": "",
                    "type": "uint256[]"
                },
                {
                    "internalType": "uint256[]",
                    "name": "",
                    "type": "uint256[]"
                },
                {
                    "internalType": "bytes",
                    "name": "",
                    "type": "bytes"
                }
            ],
            "name": "onERC1155BatchReceived",
            "outputs": [
                {
                    "internalType": "bytes4",
                    "name": "",
                    "type": "bytes4"
                }
            ],
            "stateMutability": "nonpayable",
            "type": "function"
        },
        {
            "inputs": [
                {
                    "internalType": "address",
                    "name": "",
                    "type": "address"
                },
                {
                    "internalType": "address",
                    "name": "",
                    "type": "address"
                },
                {
                    "internalType": "uint256",
                    "name": "",
                    "type": "uint256"
                },
                {
                    "internalType": "uint256",
                    "name": "",
                    "type": "uint256"
                },
                {
                    "internalType": "bytes",
                    "name": "",
                    "type": "bytes"
                }
            ],
            "name": "onERC1155Received",
            "outputs": [
                {
                    "internalType": "bytes4",
                    "name": "",
                    "type": "bytes4"
                }
            ],
            "stateMutability": "nonpayable",
            "type": "function"
        },
        {
            "inputs": [],
            "name": "owner",
            "outputs": [
                {
                    "internalType": "address",
                    "name": "",
                    "type": "address"
                }
            ],
            "stateMutability": "view",
            "type": "function"
        },
        {
            "inputs": [
                {
                    "internalType": "uint256",
                    "name": "_questionId",
                    "type": "uint256"
                }
            ],
            "name": "pauseTrade",
            "outputs": [],
            "stateMutability": "nonpayable",
            "type": "function"
        },
        {
            "inputs": [
                {
                    "internalType": "uint256",
                    "name": "",
                    "type": "uint256"
                }
            ],
            "name": "questions",
            "outputs": [
                {
                    "internalType": "address",
                    "name": "token",
                    "type": "address"
                },
                {
                    "internalType": "address",
                    "name": "maker",
                    "type": "address"
                },
                {
                    "internalType": "address",
                    "name": "resolver",
                    "type": "address"
                },
                {
                    "internalType": "bool",
                    "name": "resolved",
                    "type": "bool"
                },
                {
                    "internalType": "string",
                    "name": "title",
                    "type": "string"
                },
                {
                    "internalType": "string",
                    "name": "meta",
                    "type": "string"
                },
                {
                    "internalType": "string",
                    "name": "category",
                    "type": "string"
                },
                {
                    "internalType": "uint256",
                    "name": "questionId",
                    "type": "uint256"
                },
                {
                    "internalType": "uint256",
                    "name": "resolveTime",
                    "type": "uint256"
                },
                {
                    "internalType": "uint256",
                    "name": "funding",
                    "type": "uint256"
                },
                {
                    "internalType": "uint256",
                    "name": "fee",
                    "type": "uint256"
                },
                {
                    "internalType": "uint256",
                    "name": "slotIndex",
                    "type": "uint256"
                },
                {
                    "internalType": "uint256",
                    "name": "strikePrice",
                    "type": "uint256"
                }
            ],
            "stateMutability": "view",
            "type": "function"
        },
        {
            "inputs": [
                {
                    "internalType": "uint256",
                    "name": "_questionId",
                    "type": "uint256"
                }
            ],
            "name": "redeemRewards",
            "outputs": [],
            "stateMutability": "nonpayable",
            "type": "function"
        },
        {
            "inputs": [
                {
                    "internalType": "uint256",
                    "name": "_questionId",
                    "type": "uint256"
                }
            ],
            "name": "redeemTradeFee",
            "outputs": [],
            "stateMutability": "nonpayable",
            "type": "function"
        },
        {
            "inputs": [],
            "name": "renounceOwnership",
            "outputs": [],
            "stateMutability": "nonpayable",
            "type": "function"
        },
        {
            "inputs": [
                {
                    "internalType": "uint256",
                    "name": "_questionId",
                    "type": "uint256"
                },
                {
                    "internalType": "uint256",
                    "name": "_slotIndex",
                    "type": "uint256"
                }
            ],
            "name": "resolveQuestion",
            "outputs": [],
            "stateMutability": "nonpayable",
            "type": "function"
        },
        {
            "inputs": [
                {
                    "internalType": "address",
                    "name": "from",
                    "type": "address"
                },
                {
                    "internalType": "address",
                    "name": "to",
                    "type": "address"
                },
                {
                    "internalType": "uint256[]",
                    "name": "ids",
                    "type": "uint256[]"
                },
                {
                    "internalType": "uint256[]",
                    "name": "amounts",
                    "type": "uint256[]"
                },
                {
                    "internalType": "bytes",
                    "name": "data",
                    "type": "bytes"
                }
            ],
            "name": "safeBatchTransferFrom",
            "outputs": [],
            "stateMutability": "nonpayable",
            "type": "function"
        },
        {
            "inputs": [
                {
                    "internalType": "address",
                    "name": "from",
                    "type": "address"
                },
                {
                    "internalType": "address",
                    "name": "to",
                    "type": "address"
                },
                {
                    "internalType": "uint256",
                    "name": "id",
                    "type": "uint256"
                },
                {
                    "internalType": "uint256",
                    "name": "amount",
                    "type": "uint256"
                },
                {
                    "internalType": "bytes",
                    "name": "data",
                    "type": "bytes"
                }
            ],
            "name": "safeTransferFrom",
            "outputs": [],
            "stateMutability": "nonpayable",
            "type": "function"
        },
        {
            "inputs": [
                {
                    "internalType": "uint256",
                    "name": "_questionId",
                    "type": "uint256"
                },
                {
                    "internalType": "uint256",
                    "name": "_amount",
                    "type": "uint256"
                },
                {
                    "internalType": "uint256",
                    "name": "_slotIndex",
                    "type": "uint256"
                }
            ],
            "name": "sell",
            "outputs": [],
            "stateMutability": "nonpayable",
            "type": "function"
        },
        {
            "inputs": [
                {
                    "internalType": "address",
                    "name": "operator",
                    "type": "address"
                },
                {
                    "internalType": "bool",
                    "name": "approved",
                    "type": "bool"
                }
            ],
            "name": "setApprovalForAll",
            "outputs": [],
            "stateMutability": "nonpayable",
            "type": "function"
        },
        {
            "inputs": [
                {
                    "internalType": "bytes4",
                    "name": "interfaceId",
                    "type": "bytes4"
                }
            ],
            "name": "supportsInterface",
            "outputs": [
                {
                    "internalType": "bool",
                    "name": "",
                    "type": "bool"
                }
            ],
            "stateMutability": "view",
            "type": "function"
        },
        {
            "inputs": [],
            "name": "totalQuestions",
            "outputs": [
                {
                    "internalType": "uint256",
                    "name": "",
                    "type": "uint256"
                }
            ],
            "stateMutability": "view",
            "type": "function"
        },
        {
            "inputs": [
                {
                    "internalType": "uint256",
                    "name": "",
                    "type": "uint256"
                }
            ],
            "name": "tradeFees",
            "outputs": [
                {
                    "internalType": "uint256",
                    "name": "",
                    "type": "uint256"
                }
            ],
            "stateMutability": "view",
            "type": "function"
        },
        {
            "inputs": [
                {
                    "internalType": "address",
                    "name": "newOwner",
                    "type": "address"
                }
            ],
            "name": "transferOwnership",
            "outputs": [],
            "stateMutability": "nonpayable",
            "type": "function"
        },
        {
            "inputs": [
                {
                    "internalType": "uint256",
                    "name": "_questionId",
                    "type": "uint256"
                }
            ],
            "name": "unpauseTrade",
            "outputs": [],
            "stateMutability": "nonpayable",
            "type": "function"
        },
        {
            "inputs": [
                {
                    "internalType": "uint256",
                    "name": "",
                    "type": "uint256"
                }
            ],
            "name": "uri",
            "outputs": [
                {
                    "internalType": "string",
                    "name": "",
                    "type": "string"
                }
            ],
            "stateMutability": "view",
            "type": "function"
        }
    ],
    "bytecode": "60806040523480156200001157600080fd5b506040516200415d3803806200415d83398101604081905262000034916200028f565b6040518060600160405280602281526020016200413b6022913962000059816200009b565b506200006533620000b4565b60016009819055600a80546001600160a01b0319166001600160a01b0384161790556200009490309062000106565b50620002fd565b8051620000b0906007906020840190620001e9565b5050565b600880546001600160a01b038381166001600160a01b0319831681179093556040519116919082907f8be0079c531659141344cd1fd0a4f28419497f9722a3daafe3b4186f6b6457e090600090a35050565b620000b03383836001600160a01b03821683036200017c5760405162461bcd60e51b815260206004820152602960248201527f455243313135353a2073657474696e6720617070726f76616c20737461747573604482015268103337b91039b2b63360b91b606482015260840160405180910390fd5b6001600160a01b03838116600081815260066020908152604080832094871680845294825291829020805460ff191686151590811790915591519182527f17307eab39ab6107e8899845ad3d59bd9653f200f220920489ca2b5937696c31910160405180910390a3505050565b828054620001f790620002c1565b90600052602060002090601f0160209004810192826200021b576000855562000266565b82601f106200023657805160ff191683800117855562000266565b8280016001018555821562000266579182015b828111156200026657825182559160200191906001019062000249565b506200027492915062000278565b5090565b5b8082111562000274576000815560010162000279565b600060208284031215620002a257600080fd5b81516001600160a01b0381168114620002ba57600080fd5b9392505050565b600181811c90821680620002d657607f821691505b602082108103620002f757634e487b7160e01b600052602260045260246000fd5b50919050565b613e2e806200030d6000396000f3fe608060405234801561001057600080fd5b50600436106102105760003560e01c80639acaecab11610125578063cacf1b51116100ad578063e985e9c51161007c578063e985e9c514610537578063f23a6e6114610573578063f242432a14610592578063f2fde38b146105a5578063f5298aca146105b857600080fd5b8063cacf1b51146104eb578063d3c9727c146104fe578063d8dfeb4514610511578063d960b6b11461052457600080fd5b8063b95b20e1116100f4578063b95b20e114610464578063bc197c8114610477578063bea5b914146104af578063c07f6324146104b8578063c83481ee146104d857600080fd5b80639acaecab146103d45780639cd96bf7146103e7578063a22cb465146103fa578063b1283e771461040d57600080fd5b806340993b26116101a85780636b20c454116101775780636b20c4541461035e578063715018a61461037157806373b0f0791461037957806383ae8e0c1461038c5780638da5cb5b146103af57600080fd5b806340993b26146102f85780634e1273f41461030b5780635c1272eb1461032b578063616c08f11461033e57600080fd5b806310055ec1116101e457806310055ec1146102915780632eb2c2d6146102a657806331b1b978146102b957806335f11cc2146102e557600080fd5b8062fdd58e1461021557806301ffc9a71461023b5780630adc6b191461025e5780630e89341c14610271575b600080fd5b610228610223366004612f2f565b6105cb565b6040519081526020015b60405180910390f35b61024e610249366004612f6f565b610664565b6040519015158152602001610232565b61022861026c366004613043565b61068f565b61028461027f366004613091565b6106c3565b6040516102329190613102565b6102a461029f366004613091565b610757565b005b6102a46102b43660046131aa565b610880565b6102cc6102c7366004613091565b610917565b6040516102329d9c9b9a99989796959493929190613254565b6102a46102f3366004613091565b610b27565b6102a46103063660046132fa565b610dce565b61031e610319366004613326565b611078565b6040516102329190613422565b610228610339366004613435565b6111a2565b61035161034c366004613091565b611578565b60405161023291906134e9565b6102a461036c36600461351a565b611666565b6102a46116ae565b610228610387366004613091565b6116e4565b61024e61039a366004613091565b60046020526000908152604090205460ff1681565b6008546001600160a01b03165b6040516001600160a01b039091168152602001610232565b6102a46103e2366004613091565b611762565b6102286103f536600461358e565b6118a2565b6102a46104083660046135be565b6118be565b61044461041b366004613091565b600360208190526000918252604090912080546001820154600283015492909301549092919084565b604080519485526020850193909352918301526060820152608001610232565b6102a4610472366004613091565b6118cd565b6104966104853660046131aa565b63bc197c8160e01b95945050505050565b6040516001600160e01b03199091168152602001610232565b61022860005481565b6102286104c6366004613091565b60026020526000908152604090205481565b6102286104e6366004613091565b611a98565b6102a46104f936600461358e565b611af6565b6102a461050c3660046132fa565b611c49565b600a546103bc906001600160a01b031681565b61024e610532366004613091565b611e75565b61024e6105453660046135f5565b6001600160a01b03918216600090815260066020908152604080832093909416825291909152205460ff1690565b610496610581366004613628565b63f23a6e6160e01b95945050505050565b6102a46105a0366004613628565b611ecf565b6102a46105b336600461368d565b611f14565b6102a46105c63660046136a8565b611faf565b60006001600160a01b03831661063c5760405162461bcd60e51b815260206004820152602b60248201527f455243313135353a2062616c616e636520717565727920666f7220746865207a60448201526a65726f206164647265737360a81b60648201526084015b60405180910390fd5b5060009081526005602090815260408083206001600160a01b03949094168352929052205490565b60006001600160e01b03198216630271189760e51b1480610689575061068982611ff2565b92915050565b600082826040516020016106a49291906136db565b60408051601f1981840301815291905280516020909101209392505050565b6060600780546106d290613713565b80601f01602080910402602001604051908101604052809291908181526020018280546106fe90613713565b801561074b5780601f106107205761010080835404028352916020019161074b565b820191906000526020600020905b81548152906001019060200180831161072e57829003601f168201915b50505050509050919050565b6008546001600160a01b031633146107815760405162461bcd60e51b815260040161063390613747565b6000818152600160208190526040909120015481906001600160a01b03166107bb5760405162461bcd60e51b81526004016106339061377c565b6000828152600160205260409020600201548290600160a01b900460ff16156107f65760405162461bcd60e51b8152600401610633906137a8565b600083815260046020526040902054839060ff16156108275760405162461bcd60e51b8152600401610633906137d3565b60008481526004602052604090819020805460ff19166001179055517f05b1dd3919e8cde76f6b4f854add56da670dbb9fef89ad5f438bacb96a9a1678906108729086815260200190565b60405180910390a150505050565b6001600160a01b03851633148061089c575061089c8533610545565b6109035760405162461bcd60e51b815260206004820152603260248201527f455243313135353a207472616e736665722063616c6c6572206973206e6f74206044820152711bdddb995c881b9bdc88185c1c1c9bdd995960721b6064820152608401610633565b6109108585858585612017565b5050505050565b600160208190526000918252604090912080549181015460028201546003830180546001600160a01b03958616959384169493831693600160a01b90930460ff1692919061096490613713565b80601f016020809104026020016040519081016040528092919081815260200182805461099090613713565b80156109dd5780601f106109b2576101008083540402835291602001916109dd565b820191906000526020600020905b8154815290600101906020018083116109c057829003601f168201915b5050505050908060040180546109f290613713565b80601f0160208091040260200160405190810160405280929190818152602001828054610a1e90613713565b8015610a6b5780601f10610a4057610100808354040283529160200191610a6b565b820191906000526020600020905b815481529060010190602001808311610a4e57829003601f168201915b505050505090806005018054610a8090613713565b80601f0160208091040260200160405190810160405280929190818152602001828054610aac90613713565b8015610af95780601f10610ace57610100808354040283529160200191610af9565b820191906000526020600020905b815481529060010190602001808311610adc57829003601f168201915b50505050509080600601549080600701549080600801549080600901549080600a01549080600b015490508d565b600260095403610b495760405162461bcd60e51b8152600401610633906137ff565b60026009556000818152600160208190526040909120015481906001600160a01b0316610b885760405162461bcd60e51b81526004016106339061377c565b6000828152600160205260409020600201548290600160a01b900460ff16610be85760405162461bcd60e51b81526020600482015260136024820152722ab73932b9b7b63b32b21038bab2b9ba34b7b760691b6044820152606401610633565b6000838152600160205260408120600a015490610c0585836118a2565b90506000610c1333836105cb565b600087815260036020526040812091925090848203610c355780549150610c3d565b806001015491505b60008311610c8d5760405162461bcd60e51b815260206004820152601760248201527f4e6f7420617661696c61626c6520746f2072656465656d0000000000000000006044820152606401610633565b610c983385856121b6565b6000610cbb83610cb58685600201546122c290919063ffffffff16565b906122ce565b600a5460405163a9059cbb60e01b8152336004820152602481018390529192506000916001600160a01b039091169063a9059cbb906044016020604051808303816000875af1158015610d12573d6000803e3d6000fd5b505050506040513d601f19601f82011682018060405250810190610d369190613836565b905080610d785760405162461bcd60e51b815260206004820152601060248201526f14995dd85c991cc81b9bdd081cd95b9d60821b6044820152606401610633565b6002830154610d8790836122da565b60028401556000879003610da8578254610da190866122da565b8355610dbd565b6001830154610db790866122da565b60018401555b505060016009555050505050505050565b600260095403610df05760405162461bcd60e51b8152600401610633906137ff565b60026009556000838152600160208190526040909120015483906001600160a01b0316610e2f5760405162461bcd60e51b81526004016106339061377c565b6000848152600160205260409020600201548490600160a01b900460ff1615610e6a5760405162461bcd60e51b8152600401610633906137a8565b600085815260046020526040902054859060ff1615610e9b5760405162461bcd60e51b8152600401610633906137d3565b60008511610ee05760405162461bcd60e51b8152602060048201526012602482015271125b9d985b1a5908189d5e48185b5bdd5b9d60721b6044820152606401610633565b60028410610f005760405162461bcd60e51b815260040161063390613853565b6000610f0c87876122e6565b600a546040516323b872dd60e01b8152336004820152306024820152604481018990529192506001600160a01b0316906323b872dd906064016020604051808303816000875af1158015610f64573d6000803e3d6000fd5b505050506040513d601f19601f82011682018060405250810190610f889190613836565b5060008781526003602052604090206002810154610fa69083612354565b6002820155610fb788838833612360565b506000610fc389611578565b90507fb5feedd8d309f6abdab29901652c355401b27cd0520467858aac60d19fa21e0d898883600060200201518460016020020151866002015487600301548960405161106097969594939291906101008082526003908201526242555960e81b610120820152602081019790975260408701959095526060860193909352608085019190915260a084015260c083015260e08201526101400190565b60405180910390a15050600160095550505050505050565b606081518351146110dd5760405162461bcd60e51b815260206004820152602960248201527f455243313135353a206163636f756e747320616e6420696473206c656e677468604482015268040dad2e6dac2e8c6d60bb1b6064820152608401610633565b6000835167ffffffffffffffff8111156110f9576110f9612f8c565b604051908082528060200260200182016040528015611122578160200160208202803683370190505b50905060005b845181101561119a5761116d8582815181106111465761114661387b565b60200260200101518583815181106111605761116061387b565b60200260200101516105cb565b82828151811061117f5761117f61387b565b6020908102919091010152611193816138a7565b9050611128565b509392505050565b6008546000906001600160a01b031633146111cf5760405162461bcd60e51b815260040161063390613747565b6000831161121f5760405162461bcd60e51b815260206004820152601e60248201527f496e76616c696420696e697469616c2066756e64696e6720616d6f756e7400006044820152606401610633565b606482106112685760405162461bcd60e51b8152602060048201526016602482015275496e76616c696420747261646520666565207261746560501b6044820152606401610633565b4284116112ae5760405162461bcd60e51b8152602060048201526014602482015273496e76616c6964207265736f6c76652074696d6560601b6044820152606401610633565b600a546040516323b872dd60e01b8152336004820152306024820152604481018590526001600160a01b03909116906323b872dd906064016020604051808303816000875af1158015611305573d6000803e3d6000fd5b505050506040513d601f19601f820116820180604052508101906113299190613836565b50611334338761068f565b60008181526001602081815260409092209081018054336001600160a01b0319918216179091556002820180549091166001600160a01b038d16179055895192935091611389916003840191908b0190612e5c565b50865161139f90600483019060208a0190612e5c565b5085516113b59060058301906020890190612e5c565b50600681018290556007810185905560088101849055600981018390556000828152600360205260408120858155600180820187905560028201879055915490916114009190612354565b6000908155604080516002808252606082018352909160208301908036833750506040805160028082526060820183529394506000939092509060208301908036833701905050905060005b60028110156114ad5761145f86826118a2565b8382815181106114715761147161387b565b602002602001018181525050878282815181106114905761149061387b565b6020908102919091010152806114a5816138a7565b91505061144c565b506114c93083836040518060200160405280600081525061240e565b60006114d486611578565b600286015460018701546006880154600789015460088a015460098b01549596506001600160a01b039485169594909316937f3a38efbb1420280921d5360beb4bad483a4e3ec63565c85faaa9c7dbc6b8b4f89360038c019360048d019360058e0193919290918a600060200201518b600160200201516040516115609998979695949392919061395f565b60405180910390a35050505050979650505050505050565b611580612ee0565b6000828152600160208190526040909120015482906001600160a01b03166115ba5760405162461bcd60e51b81526004016106339061377c565b60006115c584611a98565b9050806000036115ee576040518060400160405280600081526020016000815250925050611660565b6040805180820182526000868152600360205291909120548190611620908490610cb590670de0b6b3a76400006122c2565b815260200161165a83610cb5670de0b6b3a7640000600360008b8152602001908152602001600020600101546122c290919063ffffffff16565b90529250505b50919050565b6001600160a01b03831633148061168257506116828333610545565b61169e5760405162461bcd60e51b8152600401610633906139d0565b6116a983838361255a565b505050565b6008546001600160a01b031633146116d85760405162461bcd60e51b815260040161063390613747565b6116e260006126e9565b565b6000818152600160205260408120600a01548161170184836118a2565b9050600061170f33836105cb565b6000868152600360205260408120919250908482036117315780549150611739565b806001015491505b600061175683610cb58685600201546122c290919063ffffffff16565b98975050505050505050565b6008546001600160a01b0316331461178c5760405162461bcd60e51b815260040161063390613747565b6000818152600160208190526040909120015481906001600160a01b03166117c65760405162461bcd60e51b81526004016106339061377c565b6000828152600160205260409020600201548290600160a01b900460ff16156118015760405162461bcd60e51b8152600401610633906137a8565b600083815260046020526040902054839060ff1661185a5760405162461bcd60e51b8152602060048201526016602482015275145d595cdd1a5bdb881a5cc81b9bdd081c185d5cd95960521b6044820152606401610633565b60008481526004602052604090819020805460ff19169055517f6260f74b0d6c2b11e3591ede1eb4dd5ea76ad9f5eea580a212232c26d164afa4906108729086815260200190565b60408051602081018490529081018290526000906060016106a4565b6118c933838361273b565b5050565b6002600954036118ef5760405162461bcd60e51b8152600401610633906137ff565b60026009556000818152600160208190526040909120015481906001600160a01b031633146119595760405162461bcd60e51b815260206004820152601660248201527524b73b30b634b21038bab2b9ba34b7b71036b0b5b2b960511b6044820152606401610633565b60008281526002602052604090205482906119b65760405162461bcd60e51b815260206004820152601760248201527f4e6f7420617661696c61626c65207472616465206665650000000000000000006044820152606401610633565b600a5460008481526002602052604080822054905163a9059cbb60e01b8152336004820152602481019190915290916001600160a01b03169063a9059cbb906044016020604051808303816000875af1158015611a17573d6000803e3d6000fd5b505050506040513d601f19601f82011682018060405250810190611a3b9190613836565b905080611a7f5760405162461bcd60e51b8152602060048201526012602482015271151c98591948119959481b9bdd081cd95b9d60721b6044820152606401610633565b5050506000908152600260205260408120556001600955565b60008181526001602081905260408220015482906001600160a01b0316611ad15760405162461bcd60e51b81526004016106339061377c565b600083815260036020526040902060018101549054611aef91612354565b9392505050565b6008546001600160a01b03163314611b205760405162461bcd60e51b815260040161063390613747565b6000828152600160208190526040909120015482906001600160a01b0316611b5a5760405162461bcd60e51b81526004016106339061377c565b6000838152600160205260409020600201548390600160a01b900460ff1615611b955760405162461bcd60e51b8152600401610633906137a8565b6000848152600160205260409020600701548490421015611bb557600080fd5b60028410611bd55760405162461bcd60e51b815260040161063390613853565b600085815260016020526040902060028101805460ff60a01b1916600160a01b179055600a8101859055611c08866118cd565b60408051878152602081018790527f372f04348744399b80b497711376882c2eb7003d29e800a7c52a835659217586910160405180910390a1505050505050565b600260095403611c6b5760405162461bcd60e51b8152600401610633906137ff565b60026009556000838152600160208190526040909120015483906001600160a01b0316611caa5760405162461bcd60e51b81526004016106339061377c565b6000848152600160205260409020600201548490600160a01b900460ff1615611ce55760405162461bcd60e51b8152600401610633906137a8565b600085815260046020526040902054859060ff1615611d165760405162461bcd60e51b8152600401610633906137d3565b60008511611d5c5760405162461bcd60e51b8152602060048201526013602482015272125b9d985b1a59081cd95b1b08185b5bdd5b9d606a1b6044820152606401610633565b60028410611d7c5760405162461bcd60e51b815260040161063390613853565b6000611d8987878761281b565b90506000611d9688611578565b60008981526003602081815260408084208151608081018352815481526001820154938101939093526002810154918301919091529091015460608201529192507fb5feedd8d309f6abdab29901652c355401b27cd0520467858aac60d19fa21e0d908a908990859060200201518560016020020151856040015186606001518960405161106097969594939291906101008082526004908201526314d1531360e21b610120820152602081019790975260408701959095526060860193909352608085019190915260a084015260c083015260e08201526101400190565b60008181526001602081905260408220015482906001600160a01b0316611eae5760405162461bcd60e51b81526004016106339061377c565b5050600090815260016020526040902060020154600160a01b900460ff1690565b6001600160a01b038516331480611eeb5750611eeb8533610545565b611f075760405162461bcd60e51b8152600401610633906139d0565b61091085858585856129ae565b6008546001600160a01b03163314611f3e5760405162461bcd60e51b815260040161063390613747565b6001600160a01b038116611fa35760405162461bcd60e51b815260206004820152602660248201527f4f776e61626c653a206e6577206f776e657220697320746865207a65726f206160448201526564647265737360d01b6064820152608401610633565b611fac816126e9565b50565b6001600160a01b038316331480611fcb5750611fcb8333610545565b611fe75760405162461bcd60e51b8152600401610633906139d0565b6116a98383836121b6565b60006001600160e01b03198216630271189760e51b1480610689575061068982612adc565b81518351146120385760405162461bcd60e51b815260040161063390613a19565b6001600160a01b03841661205e5760405162461bcd60e51b815260040161063390613a61565b3360005b845181101561214857600085828151811061207f5761207f61387b565b60200260200101519050600085838151811061209d5761209d61387b565b60209081029190910181015160008481526005835260408082206001600160a01b038e1683529093529190912054909150818110156120ee5760405162461bcd60e51b815260040161063390613aa6565b60008381526005602090815260408083206001600160a01b038e8116855292528083208585039055908b1682528120805484929061212d908490613af0565b9250508190555050505080612141906138a7565b9050612062565b50846001600160a01b0316866001600160a01b0316826001600160a01b03167f4a39dc06d4c0dbc64b70af90fd698a233a518aa5d07e595d983b8c0526c8f7fb8787604051612198929190613b08565b60405180910390a46121ae818787878787612b2c565b505050505050565b6001600160a01b0383166121dc5760405162461bcd60e51b815260040161063390613b36565b3360006121e884612c87565b905060006121f584612c87565b6040805160208082018352600091829052888252600581528282206001600160a01b038b16835290522054909150848110156122435760405162461bcd60e51b815260040161063390613b79565b60008681526005602090815260408083206001600160a01b038b81168086529184528285208a8703905582518b81529384018a90529092908816917fc3d58168c5ae7397731d063d5bbf3d657854427343f4c083240f7aacaa2d0f62910160405180910390a46040805160208101909152600090525b50505050505050565b6000611aef8284613bbd565b6000611aef8284613bdc565b6000611aef8284613bfe565b60008281526001602052604081206009015461231590606490610cb59061230e9083906122da565b85906122c2565b60008481526002602052604090205490915061233d9082906123379085612354565b906122da565b600093845260026020526040909320929092555090565b6000611aef8284613af0565b60008061236c86611578565b9050600061237a87866118a2565b90506123a88286600281106123915761239161387b565b6020020151610cb588670de0b6b3a76400006122c2565b92506123c584828560405180602001604052806000815250612cd2565b6000878152600360205260408120908690036123ee5780546123e79085612354565b8155612403565b60018101546123fd9085612354565b60018201555b505050949350505050565b6001600160a01b0384166124345760405162461bcd60e51b815260040161063390613c15565b81518351146124555760405162461bcd60e51b815260040161063390613a19565b3360005b84518110156124f2578381815181106124745761247461387b565b6020026020010151600560008784815181106124925761249261387b565b602002602001015181526020019081526020016000206000886001600160a01b03166001600160a01b0316815260200190815260200160002060008282546124da9190613af0565b909155508190506124ea816138a7565b915050612459565b50846001600160a01b031660006001600160a01b0316826001600160a01b03167f4a39dc06d4c0dbc64b70af90fd698a233a518aa5d07e595d983b8c0526c8f7fb8787604051612543929190613b08565b60405180910390a461091081600087878787612b2c565b6001600160a01b0383166125805760405162461bcd60e51b815260040161063390613b36565b80518251146125a15760405162461bcd60e51b815260040161063390613a19565b604080516020810190915260009081905233905b835181101561267a5760008482815181106125d2576125d261387b565b6020026020010151905060008483815181106125f0576125f061387b565b60209081029190910181015160008481526005835260408082206001600160a01b038c1683529093529190912054909150818110156126415760405162461bcd60e51b815260040161063390613b79565b60009283526005602090815260408085206001600160a01b038b1686529091529092209103905580612672816138a7565b9150506125b5565b5060006001600160a01b0316846001600160a01b0316826001600160a01b03167f4a39dc06d4c0dbc64b70af90fd698a233a518aa5d07e595d983b8c0526c8f7fb86866040516126cb929190613b08565b60405180910390a46040805160208101909152600090525b50505050565b600880546001600160a01b038381166001600160a01b0319831681179093556040519116919082907f8be0079c531659141344cd1fd0a4f28419497f9722a3daafe3b4186f6b6457e090600090a35050565b816001600160a01b0316836001600160a01b0316036127ae5760405162461bcd60e51b815260206004820152602960248201527f455243313135353a2073657474696e6720617070726f76616c20737461747573604482015268103337b91039b2b63360b91b6064820152608401610633565b6001600160a01b03838116600081815260066020908152604080832094871680845294825291829020805460ff191686151590811790915591519182527f17307eab39ab6107e8899845ad3d59bd9653f200f220920489ca2b5937696c31910160405180910390a3505050565b60008061282885846118a2565b90508361283533836105cb565b10156128755760405162461bcd60e51b815260206004820152600f60248201526e13dd995c999b1bddc8185b5bdd5b9d608a1b6044820152606401610633565b6128803382866121b6565b600061288b86611578565b90506128ba670de0b6b3a7640000610cb58387600281106128ae576128ae61387b565b602002015188906122c2565b92506128c686846122e6565b60008781526003602052604081209194508590036128f15780546128ea90856122da565b8155612906565b600181015461290090856122da565b60018201555b600281015461291590856122da565b600282015560038101546129299085612354565b6003820155600a5460405163a9059cbb60e01b8152336004820152602481018690526001600160a01b039091169063a9059cbb906044016020604051808303816000875af115801561297f573d6000803e3d6000fd5b505050506040513d601f19601f820116820180604052508101906129a39190613836565b505050509392505050565b6001600160a01b0384166129d45760405162461bcd60e51b815260040161063390613a61565b3360006129e085612c87565b905060006129ed85612c87565b905060008681526005602090815260408083206001600160a01b038c16845290915290205485811015612a325760405162461bcd60e51b815260040161063390613aa6565b60008781526005602090815260408083206001600160a01b038d8116855292528083208985039055908a16825281208054889290612a71908490613af0565b909155505060408051888152602081018890526001600160a01b03808b16928c821692918816917fc3d58168c5ae7397731d063d5bbf3d657854427343f4c083240f7aacaa2d0f62910160405180910390a4612ad1848a8a8a8a8a612da1565b505050505050505050565b60006001600160e01b03198216636cdb3d1360e11b1480612b0d57506001600160e01b031982166303a24d0760e21b145b8061068957506301ffc9a760e01b6001600160e01b0319831614610689565b6001600160a01b0384163b156121ae5760405163bc197c8160e01b81526001600160a01b0385169063bc197c8190612b709089908990889088908890600401613c56565b6020604051808303816000875af1925050508015612bab575060408051601f3d908101601f19168201909252612ba891810190613ca8565b60015b612c5757612bb7613cc5565b806308c379a003612bf05750612bcb613ce1565b80612bd65750612bf2565b8060405162461bcd60e51b81526004016106339190613102565b505b60405162461bcd60e51b815260206004820152603460248201527f455243313135353a207472616e7366657220746f206e6f6e20455243313135356044820152732932b1b2b4bb32b91034b6b83632b6b2b73a32b960611b6064820152608401610633565b6001600160e01b0319811663bc197c8160e01b146122b95760405162461bcd60e51b815260040161063390613d6b565b60408051600180825281830190925260609160009190602080830190803683370190505090508281600081518110612cc157612cc161387b565b602090810291909101015292915050565b6001600160a01b038416612cf85760405162461bcd60e51b815260040161063390613c15565b336000612d0485612c87565b90506000612d1185612c87565b905060008681526005602090815260408083206001600160a01b038b16845290915281208054879290612d45908490613af0565b909155505060408051878152602081018790526001600160a01b03808a1692600092918716917fc3d58168c5ae7397731d063d5bbf3d657854427343f4c083240f7aacaa2d0f62910160405180910390a46122b9836000898989895b6001600160a01b0384163b156121ae5760405163f23a6e6160e01b81526001600160a01b0385169063f23a6e6190612de59089908990889088908890600401613db3565b6020604051808303816000875af1925050508015612e20575060408051601f3d908101601f19168201909252612e1d91810190613ca8565b60015b612e2c57612bb7613cc5565b6001600160e01b0319811663f23a6e6160e01b146122b95760405162461bcd60e51b815260040161063390613d6b565b828054612e6890613713565b90600052602060002090601f016020900481019282612e8a5760008555612ed0565b82601f10612ea357805160ff1916838001178555612ed0565b82800160010185558215612ed0579182015b82811115612ed0578251825591602001919060010190612eb5565b50612edc929150612efe565b5090565b60405180604001604052806002906020820280368337509192915050565b5b80821115612edc5760008155600101612eff565b80356001600160a01b0381168114612f2a57600080fd5b919050565b60008060408385031215612f4257600080fd5b612f4b83612f13565b946020939093013593505050565b6001600160e01b031981168114611fac57600080fd5b600060208284031215612f8157600080fd5b8135611aef81612f59565b634e487b7160e01b600052604160045260246000fd5b601f8201601f1916810167ffffffffffffffff81118282101715612fc857612fc8612f8c565b6040525050565b600082601f830112612fe057600080fd5b813567ffffffffffffffff811115612ffa57612ffa612f8c565b604051613011601f8301601f191660200182612fa2565b81815284602083860101111561302657600080fd5b816020850160208301376000918101602001919091529392505050565b6000806040838503121561305657600080fd5b61305f83612f13565b9150602083013567ffffffffffffffff81111561307b57600080fd5b61308785828601612fcf565b9150509250929050565b6000602082840312156130a357600080fd5b5035919050565b60005b838110156130c55781810151838201526020016130ad565b838111156126e35750506000910152565b600081518084526130ee8160208601602086016130aa565b601f01601f19169290920160200192915050565b602081526000611aef60208301846130d6565b600067ffffffffffffffff82111561312f5761312f612f8c565b5060051b60200190565b600082601f83011261314a57600080fd5b8135602061315782613115565b6040516131648282612fa2565b83815260059390931b850182019282810191508684111561318457600080fd5b8286015b8481101561319f5780358352918301918301613188565b509695505050505050565b600080600080600060a086880312156131c257600080fd5b6131cb86612f13565b94506131d960208701612f13565b9350604086013567ffffffffffffffff808211156131f657600080fd5b61320289838a01613139565b9450606088013591508082111561321857600080fd5b61322489838a01613139565b9350608088013591508082111561323a57600080fd5b5061324788828901612fcf565b9150509295509295909350565b6001600160a01b038e811682528d1660208201526001600160a01b038c1660408201528a151560608201526101a0608082015260006132976101a083018c6130d6565b82810360a08401526132a9818c6130d6565b905082810360c08401526132bd818b6130d6565b60e0840199909952505061010081019590955261012085019390935261014084019190915261016083015261018090910152979650505050505050565b60008060006060848603121561330f57600080fd5b505081359360208301359350604090920135919050565b6000806040838503121561333957600080fd5b823567ffffffffffffffff8082111561335157600080fd5b818501915085601f83011261336557600080fd5b8135602061337282613115565b60405161337f8282612fa2565b83815260059390931b850182019282810191508984111561339f57600080fd5b948201945b838610156133c4576133b586612f13565b825294820194908201906133a4565b965050860135925050808211156133da57600080fd5b5061308785828601613139565b600081518084526020808501945080840160005b83811015613417578151875295820195908201906001016133fb565b509495945050505050565b602081526000611aef60208301846133e7565b600080600080600080600060e0888a03121561345057600080fd5b61345988612f13565b9650602088013567ffffffffffffffff8082111561347657600080fd5b6134828b838c01612fcf565b975060408a013591508082111561349857600080fd5b6134a48b838c01612fcf565b965060608a01359150808211156134ba57600080fd5b506134c78a828b01612fcf565b979a969950949760808101359660a0820135965060c090910135945092505050565b60408101818360005b60028110156135115781518352602092830192909101906001016134f2565b50505092915050565b60008060006060848603121561352f57600080fd5b61353884612f13565b9250602084013567ffffffffffffffff8082111561355557600080fd5b61356187838801613139565b9350604086013591508082111561357757600080fd5b5061358486828701613139565b9150509250925092565b600080604083850312156135a157600080fd5b50508035926020909101359150565b8015158114611fac57600080fd5b600080604083850312156135d157600080fd5b6135da83612f13565b915060208301356135ea816135b0565b809150509250929050565b6000806040838503121561360857600080fd5b61361183612f13565b915061361f60208401612f13565b90509250929050565b600080600080600060a0868803121561364057600080fd5b61364986612f13565b945061365760208701612f13565b93506040860135925060608601359150608086013567ffffffffffffffff81111561368157600080fd5b61324788828901612fcf565b60006020828403121561369f57600080fd5b611aef82612f13565b6000806000606084860312156136bd57600080fd5b6136c684612f13565b95602085013595506040909401359392505050565b6bffffffffffffffffffffffff198360601b168152600082516137058160148501602087016130aa565b919091016014019392505050565b600181811c9082168061372757607f821691505b60208210810361166057634e487b7160e01b600052602260045260246000fd5b6020808252818101527f4f776e61626c653a2063616c6c6572206973206e6f7420746865206f776e6572604082015260600190565b602080825260129082015271125b9d985b1a59081c5d595cdd1a5bdb925960721b604082015260600190565b6020808252601190820152702932b9b7b63b32b21038bab2b9ba34b7b760791b604082015260600190565b602080825260129082015271145d595cdd1a5bdb881a5cc81c185d5cd95960721b604082015260600190565b6020808252601f908201527f5265656e7472616e637947756172643a207265656e7472616e742063616c6c00604082015260600190565b60006020828403121561384857600080fd5b8151611aef816135b0565b6020808252600e908201526d24b73b30b634b21030b739bbb2b960911b604082015260600190565b634e487b7160e01b600052603260045260246000fd5b634e487b7160e01b600052601160045260246000fd5b6000600182016138b9576138b9613891565b5060010190565b8054600090600181811c90808316806138da57607f831692505b602080841082036138fb57634e487b7160e01b600052602260045260246000fd5b83885260208801828015613916576001811461392757613952565b60ff19871682528282019750613952565b60008981526020902060005b8781101561394c57815484820152908601908401613933565b83019850505b5050505050505092915050565b60006101208083526139738184018d6138c0565b90508281036020840152613987818c6138c0565b9050828103604084015261399b818b6138c0565b60608401999099525050608081019590955260a085019390935260c084019190915260e0830152610100909101529392505050565b60208082526029908201527f455243313135353a2063616c6c6572206973206e6f74206f776e6572206e6f7260408201526808185c1c1c9bdd995960ba1b606082015260800190565b60208082526028908201527f455243313135353a2069647320616e6420616d6f756e7473206c656e677468206040820152670dad2e6dac2e8c6d60c31b606082015260800190565b60208082526025908201527f455243313135353a207472616e7366657220746f20746865207a65726f206164604082015264647265737360d81b606082015260800190565b6020808252602a908201527f455243313135353a20696e73756666696369656e742062616c616e636520666f60408201526939103a3930b739b332b960b11b606082015260800190565b60008219821115613b0357613b03613891565b500190565b604081526000613b1b60408301856133e7565b8281036020840152613b2d81856133e7565b95945050505050565b60208082526023908201527f455243313135353a206275726e2066726f6d20746865207a65726f206164647260408201526265737360e81b606082015260800190565b60208082526024908201527f455243313135353a206275726e20616d6f756e7420657863656564732062616c604082015263616e636560e01b606082015260800190565b6000816000190483118215151615613bd757613bd7613891565b500290565b600082613bf957634e487b7160e01b600052601260045260246000fd5b500490565b600082821015613c1057613c10613891565b500390565b60208082526021908201527f455243313135353a206d696e7420746f20746865207a65726f206164647265736040820152607360f81b606082015260800190565b6001600160a01b0386811682528516602082015260a060408201819052600090613c82908301866133e7565b8281036060840152613c9481866133e7565b9050828103608084015261175681856130d6565b600060208284031215613cba57600080fd5b8151611aef81612f59565b600060033d1115613cde5760046000803e5060005160e01c5b90565b600060443d1015613cef5790565b6040516003193d81016004833e81513d67ffffffffffffffff8160248401118184111715613d1f57505050505090565b8285019150815181811115613d375750505050505090565b843d8701016020828501011115613d515750505050505090565b613d6060208286010187612fa2565b509095945050505050565b60208082526028908201527f455243313135353a204552433131353552656365697665722072656a656374656040820152676420746f6b656e7360c01b606082015260800190565b6001600160a01b03868116825285166020820152604081018490526060810183905260a060808201819052600090613ded908301846130d6565b97965050505050505056fea2646970667358221220c5c98086149f0c564319cc3963793c63926bcc575307e673d3325502c9efc56464736f6c634300080d003368747470733a2f2f646572697665642e66692f696d616765732f6c6f676f2e706e67",
    "sourcePath": "/Users/bharatverma/Documents/02. BTC/Solidity/Derived BO v2/mvp-2.0-contract/contracts/DerivedPredictionMarket.sol",
    "compiler": {
        "name": "solc",
        "version": "0.8.13+commit.abaa5c0e"
    },
    "functionHashes": {
        "balanceOf(address,uint256)": "00fdd58e",
        "balanceOfBatch(address[],uint256[])": "4e1273f4",
        "burn(address,uint256,uint256)": "f5298aca",
        "burnBatch(address,uint256[],uint256[])": "6b20c454",
        "buy(uint256,uint256,uint256)": "40993b26",
        "collateral()": "d8dfeb45",
        "createQuestion(address,string,string,string,uint256,uint256,uint256)": "5c1272eb",
        "generateAnswerId(uint256,uint256)": "9cd96bf7",
        "generateQuestionId(address,string)": "0adc6b19",
        "getAnswerPrices(uint256)": "616c08f1",
        "getQuestionStatus(uint256)": "d960b6b1",
        "getVolume(uint256)": "c83481ee",
        "getrewards(uint256)": "73b0f079",
        "isApprovedForAll(address,address)": "e985e9c5",
        "marketStatus(uint256)": "83ae8e0c",
        "markets(uint256)": "b1283e77",
        "onERC1155BatchReceived(address,address,uint256[],uint256[],bytes)": "bc197c81",
        "onERC1155Received(address,address,uint256,uint256,bytes)": "f23a6e61",
        "owner()": "8da5cb5b",
        "pauseTrade(uint256)": "10055ec1",
        "questions(uint256)": "31b1b978",
        "redeemRewards(uint256)": "35f11cc2",
        "redeemTradeFee(uint256)": "b95b20e1",
        "renounceOwnership()": "715018a6",
        "resolveQuestion(uint256,uint256)": "cacf1b51",
        "safeBatchTransferFrom(address,address,uint256[],uint256[],bytes)": "2eb2c2d6",
        "safeTransferFrom(address,address,uint256,uint256,bytes)": "f242432a",
        "sell(uint256,uint256,uint256)": "d3c9727c",
        "setApprovalForAll(address,bool)": "a22cb465",
        "supportsInterface(bytes4)": "01ffc9a7",
        "totalQuestions()": "bea5b914",
        "tradeFees(uint256)": "c07f6324",
        "transferOwnership(address)": "f2fde38b",
        "unpauseTrade(uint256)": "9acaecab",
        "uri(uint256)": "0e89341c"
    },
    "gasEstimates": {
        "creation": {
            "codeDepositCost": "3183600",
            "executionCost": "infinite",
            "totalCost": "infinite"
        },
        "external": {
            "balanceOf(address,uint256)": "2721",
            "balanceOfBatch(address[],uint256[])": "infinite",
            "burn(address,uint256,uint256)": "infinite",
            "burnBatch(address,uint256[],uint256[])": "infinite",
            "buy(uint256,uint256,uint256)": "infinite",
            "collateral()": "2426",
            "createQuestion(address,string,string,string,uint256,uint256,uint256)": "infinite",
            "generateAnswerId(uint256,uint256)": "550",
            "generateQuestionId(address,string)": "infinite",
            "getAnswerPrices(uint256)": "infinite",
            "getQuestionStatus(uint256)": "4816",
            "getVolume(uint256)": "infinite",
            "getrewards(uint256)": "infinite",
            "isApprovedForAll(address,address)": "infinite",
            "marketStatus(uint256)": "2561",
            "markets(uint256)": "8961",
            "onERC1155BatchReceived(address,address,uint256[],uint256[],bytes)": "infinite",
            "onERC1155Received(address,address,uint256,uint256,bytes)": "infinite",
            "owner()": "2453",
            "pauseTrade(uint256)": "34421",
            "questions(uint256)": "infinite",
            "redeemRewards(uint256)": "infinite",
            "redeemTradeFee(uint256)": "infinite",
            "renounceOwnership()": "28184",
            "resolveQuestion(uint256,uint256)": "infinite",
            "safeBatchTransferFrom(address,address,uint256[],uint256[],bytes)": "infinite",
            "safeTransferFrom(address,address,uint256,uint256,bytes)": "infinite",
            "sell(uint256,uint256,uint256)": "infinite",
            "setApprovalForAll(address,bool)": "26802",
            "supportsInterface(bytes4)": "infinite",
            "totalQuestions()": "2373",
            "tradeFees(uint256)": "2538",
            "transferOwnership(address)": "28422",
            "unpauseTrade(uint256)": "34412",
            "uri(uint256)": "infinite"
        },
        "internal": {
            "_addTradeFee(uint256,uint256)": "infinite",
            "_burnShares(uint256,uint256,uint256)": "infinite",
            "_mintShares(uint256,uint256,uint256,address)": "infinite"
        }
    }
}